:100000000C9434000C9449000C9449000C94490061
:100010000C9449000C9449000C9449000C9449003C
:100020000C9449000C9449000C9449000C9449002C
:100030000C9449000C9449000C9449000C9449001C
:100040000C9449000C9449000C9449000C9449000C
:100050000C9449000C9449000C9449000C944900FC
:100060000C9449000C94490011241FBECFEFD8E036
:10007000DEBFCDBF11E0A0E0B1E0E0E2F1E002C000
:1000800005900D92A230B107D9F70E9460000C9440
:100090008E000C9400002D9A2FEF8FE891E02150F4
:1000A00080409040E1F700C000002D982FEF8FE8CE
:1000B00091E0215080409040E1F700C00000089599
:1000C000259A8091C10088618093C1008091C2000F
:1000D00086608093C2001092C50087E68093C400BA
:1000E000D1E08091C00087FD10C0C03349F4109268
:1000F0000001809100018823A1F30E944B00F1CF01
:10010000C133B9F7D0930001F4CFC091C6008091FC
:10011000C00085FFFCCFC093C600E3CFF894FFCFAB
:020120000100DC
:00000001FF
