:100000000C9434000C9449000C9449000C94490061
:100010000C9449000C9449000C9449000C9449003C
:100020000C9449000C9449000C9449000C9449002C
:100030000C9449000C9449000C9449000C9449001C
:100040000C9449000C9449000C9449000C9449000C
:100050000C9449000C9449000C9449000C944900FC
:100060000C9449000C94490011241FBECFEFD8E036
:10007000DEBFCDBF11E0A0E0B1E0E0E5F1E002C0FD
:1000800005900D92A230B107D9F70E946E000C9432
:10009000A6000C940000259A2D9A2FEF8FE79CE084
:1000A000215080409040E1F700C000002D982FEFD4
:1000B0008FE79CE0215080409040E1F700C00000B5
:1000C00008958CE384B980E58CBD08951CBC089527
:1000D0008EBD0DB407FEFDCF8EB50895CF930E945F
:1000E000610085E00E946800C82F88E40E946800D3
:1000F00085E60E9468008CE60E9468008CE60E94FB
:1001000068008FE60E94680080E20E94680087E530
:100110000E9468008FE60E94680082E70E946800E3
:100120008CE60E94680084E60E94680081E20E94DA
:1001300068000E946600CF5FCC2321F00E944B0034
:10014000C150FACF90E080E0CF910895F894FFCFAE
:020150000100AC
:00000001FF
